:020000040800F2
:1000000000000220D55300081554000815540008BC
:10001000155400080000000000000000000000006F
:10002000000000000000000000000000A94C0008D3
:100030000000000000000000D94D0008374E000805
:1000400080B483B000AF4FF0500383F31188BFF347
:100050006F8FBFF34F8F7B6000BF00BFFDE780B4A1
:1000600085B000AF786039604FF0500383F311889A
:10007000BFF36F8FBFF34F8FFB6000BF00BFFDE783
:1000800080B582B002AF154B1B68144A43F00103E0
:100090001360134B1B68124A23F440631360104B28
:1000A0001B680F4A43F4806313600023019301230C
:1000B0000093002380220B490B4801F0F3FF00233B
:1000C00001930123009300234FF4807207490848ED
:1000D00001F0E8FF02F0EAFB00BFFDE73038024024
:1000E0000000024018540008F50000081C540008E5
:1000F0001901000880B582B000AF7860054B1B681D
:10010000044A83F020031360642002F083F900BFE7
:10011000F4E700BF1400024080B582B000AF786001
:10012000054B1B680133044A13604FF4FA7002F068
:1001300071F900BFF4E700BF0400002080B487B06D
:1001400000AFF860B9607A60FB687B61BB683B61B7
:1001500007E03A69531C3B617B69591C796112784D
:100160001A707B685A1E7A60002BF2D1FB68184621
:100170001C37BD465DF8047B704780B487B000AF84
:10018000F860B9607A60FB687B6105E07B695A1CA6
:100190007A61BA68D2B21A707B685A1E7A60002BF4
:1001A000F4D1FB6818461C37BD465DF8047B7047E8
:1001B00080B582B000AF182004F088FE78607B68BC
:1001C000002B07D07B6800221A607B680433184636
:1001D00000F012FA7B6818460837BD4680BD80B52E
:1001E0008AB000AFF860B9607A603B60FB683B6240
:1001F0000023FB6102F0C0FB3B6A1B68BB61B9686E
:10020000F86800F02DF9BA69BB681A437B6813409F
:100210007A689A420DD1BA69BB6813437B623B6A24
:100220001A687B68DB431A403B6A1A6000233B6014
:1002300013E03B68002B0BD03B6A181D7B6843F032
:10024000A0633A68194602F08FFE00237B6204E047
:100250003B6A1B687B620123FB6102F09BFB7861B8
:100260003B68002B2CD07B69002B07D1174B4FF03C
:1002700080521A60BFF34F8FBFF36F8F03F08AFB7A
:1002800078627B6A03F00073002B15D104F06FFDD8
:100290003B6A1B687B627A6A7B6813407A689A4281
:1002A00006D13B6A1A687B68DB431A403B6A1A60D6
:1002B00004F078FD0123FB617B6A23F07F437B62BE
:1002C0007B6A18462837BD4680BD00BF04ED00E0BC
:1002D00080B58CB000AFF860B9607A603B60FB68B5
:1002E0007B620023BB6200233B6202F045FB7B6A1A
:1002F0001B68FB613A68B968F86900F05AF9B8619F
:10030000BB69002B0ED0FB69FB620023BB637B68DB
:10031000002B28D07B6A1A68BB68DB431A407B6AD3
:100320001A6020E0BB6B002B04D1FB69FB62012348
:100330003B6218E07B68002B03D0BB6A43F08073FC
:10034000BB623B68002B03D0BB6A43F08063BB6297
:100350007B6A181DBA68BB6A1343BA6B194602F070
:1003600003FE0023FB6202F015FB7861BB6B002BE0
:1003700031D07B69002B07D1194B4FF080521A60A6
:10038000BFF34F8FBFF36F8F03F004FBF862FB6A7C
:1003900003F00073002B1AD104F0E9FC7B6A1B68A0
:1003A000FB623A68B968F86A00F003F90346002B6B
:1003B00009D07B68002B06D07B6A1A68BB68DB43D8
:1003C0001A407B6A1A6001233B6204F0EBFCFB6A73
:1003D00023F07F43FB62FB6A18463037BD4680BD81
:1003E00004ED00E080B584B000AF786039607B68D0
:1003F000FB6004F0BCFCFB681B68BB60FB681A6810
:100400003B68DB431A40FB681A6004F0CBFCBB6816
:1004100018461037BD4680BD80B489B000AF786003
:100420007B68FB61EFF311824FF0500383F3118877
:10043000BFF36F8FBFF34F8FFA60BB60FB68BB6188
:10044000FB691B687B61BB693B613B6983F3118876
:1004500000BF7B6918462437BD465DF8047B7047B2
:1004600080B58CB000AF786039600023BB627B68D8
:100470003B6200237B623B6A0433FB61FB69083308
:10048000BB6102F079FAFB69DB68FB623B6A1A68C0
:100490003B681A433B6A1A603CE0FB6A5B683B615D
:1004A000FB6A1B68FB6000237B62FB6803F07F43F1
:1004B000BB60FB6823F07F43FB60BB6803F0806395
:1004C000002B08D13B6A1A68FB681340002B0BD045
:1004D00001237B6208E03B6A1A68FB681340FA68F4
:1004E0009A4201D101237B627B6A002B10D0BB684A
:1004F00003F08073002B03D0BA6AFB681343BB621E
:100500003B6A1B6843F000731946F86A02F066FE06
:100510003B69FB62FA6ABB699A42BED13B6A1A68C0
:10052000BB6ADB431A403B6A1A603B6A1B687B610B
:1005300002F030FA7B6918463037BD4680BD80B581
:1005400084B000AF78607B68FB60FB680433BB60FD
:1005500002F012FA06E0BB68DB684FF00071184643
:1005600002F03CFEBB681B68002BF4D102F012FACB
:10057000F86804F063FD00BF1037BD4680BD80B54C
:1005800082B000AF7860396039687868FFF768FF3B
:1005900000BF0837BD4680BD80B582B000AF78602F
:1005A000396039687868FFF71DFF00BF0837BD461E
:1005B00080BD80B487B000AFF860B9607A60002376
:1005C0007B617B68002B07D1FA68BB681340002B66
:1005D0000AD001237B6107E0FA68BB681340BA6860
:1005E0009A4201D101237B617B6918461C37BD46C5
:1005F0005DF8047B704700BF80B483B000AF7860C3
:100600007B6803F108027B685A607B684FF0FF3219
:100610009A607B6803F108027B68DA607B6803F10B
:1006200008027B681A617B6800221A6000BF0C37E1
:10063000BD465DF8047B704780B483B000AF78603E
:100640007B6800221A6100BF0C37BD465DF8047B51
:10065000704780B485B000AF786039607B685B68B4
:10066000FB603B68FA685A60FB689A683B689A606E
:10067000FB689B683A685A60FB683A689A603B6816
:100680007A681A617B681B685A1C7B681A6000BF15
:100690001437BD465DF8047B704780B485B000AF69
:1006A000786039603B681B68BB60BB68B3F1FF3F93
:1006B00003D17B681B69FB600CE07B680833FB603F
:1006C00002E0FB685B68FB60FB685B681B68BA68FC
:1006D0009A42F6D2FB685A683B685A603B685B688E
:1006E0003A689A603B68FA689A60FB683A685A60B0
:1006F0003B687A681A617B681B685A1C7B681A60C1
:1007000000BF1437BD465DF8047B704780B485B0E8
:1007100000AF78607B681B69FB607B685B687A6808
:1007200092689A607B689B687A6852685A60FB6836
:100730005B687A689A4203D17B689A68FB685A6062
:100740007B6800221A61FB681B685A1EFB681A60EE
:10075000FB681B6818461437BD465DF8047B70477C
:1007600080B584B000AF786039600123FB607B689E
:10077000BB60BB68002B5DD0BB68DB6B002B59D026
:10078000BB681A6CBB68DB6B0021A3FB0223002B48
:1007900000D001210B46002B4CD104F0E8FABB68D5
:1007A0001A68BB68DB6BB968096C01FB03F31A4478
:1007B000BB689A60BB6800229A63BB681A68BB6812
:1007C0005A60BB681A68BB68DB6B013BB968096C8F
:1007D00001FB03F31A44BB68DA60BB68FF2283F8AD
:1007E0004420BB68FF2283F845203B68002B14D1CE
:1007F000BB681B69002B1AD0BB681033184602F087
:1008000023FC0346002B12D00E4B4FF080521A608F
:10081000BFF34F8FBFF36F8F09E0BB6810331846EB
:10082000FFF7EAFEBB6824331846FFF7E5FE04F045
:10083000B9FA01E00023FB60FB6818461037BD469B
:1008400080BD00BF04ED00E080B58AB002AFF86063
:10085000B9601346FB710023FB61FB68002B2DD0B0
:100860000021BA68FB68A3FB0223002B00D0012102
:100870000B46002B22D1FB68BA6802FB03F313F18D
:10088000490F1BD8FB68BA6802FB03F3BB61BB6965
:100890004833184604F01AFBF861FB69002B0DD0B1
:1008A000FB697B617B6948337B61FA79FB69009363
:1008B00013467A69B968F86800F005F8FB691846CC
:1008C0002037BD4680BD80B584B000AFF860B96008
:1008D0007A60FB70BB68002B03D1BB69BA691A60F0
:1008E00002E0BB697A681A60BB69FA68DA63BB69BF
:1008F000BA681A640121B869FFF732FF00BF1037E8
:10090000BD4680BD80B582B000AF78607B68002BAB
:100910000ED07B6800229A607B6800221A607B6898
:100920000022DA60002300220021786800F089F8B4
:1009300000BF0837BD4680BD80B586B000AF034616
:10094000FB7101237B6100233B61FB791A46396906
:100950007869FFF779FFF860F868FFF7D3FFFB6865
:1009600018461837BD4680BD90B585B000AF786099
:100970007B68BB60BB689C6802F00AFE03469C4231
:1009800011D1BB68DB685A1EBB68DA60BB68DB68E4
:10099000002B05D1002300220021B86800F051F897
:1009A0000123FB6001E00023FB60FB68184614375D
:1009B000BD4690BD90B585B000AF786039607B686A
:1009C000BB60BB689C6802F0E3FD03469C4207D114
:1009D000BB68DB685A1CBB68DA600123FB600CE073
:1009E0003968B86800F03CFAF860FB68002B04D066
:1009F000BB68DB685A1CBB68DA60FB6818461437B2
:100A0000BD4690BD80B584B000AF786039600023EA
:100A1000FB607B68002B0FD03A687B689A420BD84A
:100A2000022200217868FFF70FFFF860FB68002BB7
:100A300002D0FB683A689A63FB6818461037BD46D7
:100A400080BD80B58AB000AFF860B9607A603B6065
:100A500000237B62FB683B6204F089F93B6A9A6B76
:100A60003B6ADB6B9A4202D33B68022B29D13A687E
:100A7000B968386A00F066FCF8613B6A5B6A002B73
:100A800010D03B6A2433184602F0DEFA0346002BEE
:100A900013D0404B4FF080521A60BFF34F8FBFF31B
:100AA0006F8F0AE0FB69002B07D03A4B4FF0805262
:100AB0001A60BFF34F8FBFF36F8F04F073F90123F8
:100AC00063E07B68002B03D104F06CF900235CE049
:100AD0007B6A002B06D107F11403184602F03AFC9A
:100AE00001237B6204F05EF901F046FF04F03FF958
:100AF0003B6A93F844305BB2B3F1FF3F03D13B6AEA
:100B0000002283F844203B6A93F845305BB2B3F18E
:100B1000FF3F03D13B6A002283F8452004F042F9ED
:100B20003A1D07F114031146184602F029FC03464A
:100B3000002B24D1386A00F013FD0346002B18D097
:100B40003B6A10337A681146184602F0F7F9386AA2
:100B500000F088FC01F01EFF0346002B7FF47CAF01
:100B60000C4B4FF080521A60BFF34F8FBFF36F8F63
:100B700072E7386A00F076FC01F00CFF6CE7386A27
:100B800000F070FC01F006FF002318462837BD4630
:100B900080BD00BF04ED00E080B58EB000AFF8600E
:100BA000B9607A603B60FB683B63EFF311824FF002
:100BB000500383F31188BFF36F8FBFF34F8FFA6138
:100BC000BB61FB69FB623B6B9A6B3B6BDB6B9A42D5
:100BD00002D33B68022B37D13B6B93F8453087F843
:100BE0002B303B6B9B6B7B623A68B968386B00F0CB
:100BF000A9FB97F92B30B3F1FF3F12D13B6B5B6A36
:100C0000002B1ED03B6B2433184602F01DFA03461E
:100C1000002B16D07B68002B13D07B6801221A6052
:100C20000FE001F0D1FF386297F92B303A6A9A420F
:100C300007D997F82B300133DBB25AB23B6B83F8FC
:100C4000452001237B6301E000237B63FB6A7B611A
:100C50007B6983F3118800BF7B6B18463837BD462C
:100C600080BD80B58CB000AF786039607B68BB62B6
:100C7000EFF311824FF0500383F31188BFF36F8FAE
:100C8000BFF34F8F7A613B617B697B62BB6A9B6B71
:100C90003B62BB6ADB6B3A6A9A4231D2BB6A93F819
:100CA0004530FB773B6A5A1CBB6A9A6397F91F3041
:100CB000B3F1FF3F12D1BB6A5B6A002B1DD0BB6A48
:100CC0002433184602F0C0F90346002B15D03B68C8
:100CD000002B12D03B6801221A600EE001F074FF75
:100CE000B86197F91F30BA699A4206D9FB7F013380
:100CF000DBB25AB2BB6A83F845200123FB6201E0F4
:100D00000023FB627B6AFB60FB6883F3118800BFF2
:100D1000FB6A18463037BD4680BD80B58AB000AF4B
:100D2000F860B9607A6000237B62FB683B6204F084
:100D30001EF83B6A9B6BFB61FB69002B1FD0B968F7
:100D4000386A00F069FBFB695A1E3B6A9A633B6A8A
:100D50001B69002B0FD03B6A1033184602F074F960
:100D60000346002B07D03D4B4FF080521A60BFF373
:100D70004F8FBFF36F8F04F015F8012369E07B6894
:100D8000002B03D104F00EF8002362E07B6A002BF5
:100D900006D107F11403184602F0DCFA01237B6246
:100DA00004F000F801F0E8FD03F0E1FF3B6A93F87E
:100DB00044305BB2B3F1FF3F03D13B6A002283F8BA
:100DC00044203B6A93F845305BB2B3F1FF3F03D157
:100DD0003B6A002283F8452003F0E4FF3A1D07F147
:100DE00014031146184602F0CBFA0346002B23D118
:100DF000386A00F089FB0346002B17D03B6A243386
:100E00007A681146184602F099F8386A00F02AFB11
:100E100001F0C0FD0346002B89D1104B4FF08052EA
:100E20001A60BFF34F8FBFF36F8F80E7386A00F00F
:100E300019FB01F0AFFD7AE7386A00F013FB01F00F
:100E4000A9FD386A00F060FB0346002B3FF46FAF4A
:100E5000002318462837BD4680BD00BF04ED00E0E2
:100E600080B58AB000AF7860396000237B627B6810
:100E7000FB6100233B6203F07AFFFB699B6BBB6164
:100E8000BB69002B24D0BB695A1EFB699A63FB69BE
:100E90001B68002B04D102F095FD0246FB699A60A5
:100EA000FB691B69002B0FD0FB691033184602F059
:100EB000CBF80346002B07D04C4B4FF080521A6002
:100EC000BFF34F8FBFF36F8F03F06CFF012389E0F7
:100ED0003B68002B03D103F065FF002382E07B6AAF
:100EE000002B06D107F10C03184602F033FA012358
:100EF0007B6203F057FF01F03FFD03F038FFFB6911
:100F000093F844305BB2B3F1FF3F03D1FB69002299
:100F100083F84420FB6993F845305BB2B3F1FF3F9F
:100F200003D1FB69002283F8452003F03BFF3A46DA
:100F300007F10C031146184602F022FA0346002B73
:100F400032D1F86900F0E0FA0346002B26D0FB69A5
:100F50001B68002B09D103F00AFFFB699B68184648
:100F600002F05CFB386203F01DFFFB6924333A6832
:100F70001146184601F0E2FFF86900F073FA01F03B
:100F800009FD0346002B7FF476AF184B4FF08052DB
:100F90001A60BFF34F8FBFF36F8F6CE7F86900F0F3
:100FA00061FA01F0F7FC66E7F86900F05BFA01F01E
:100FB000F1FCF86900F0A8FA0346002B3FF45BAFA0
:100FC0003B6A002B0DD003F0D2FEF86900F0A2F9C5
:100FD0007861FB699B687969184602F043FC03F06D
:100FE000E1FE002318462837BD4680BD04ED00E031
:100FF00080B58AB000AFF860B9607A6000237B6288
:10100000FB683B6203F0B3FE3B6A9B6BFB61FB69D1
:10101000002B21D03B6ADB68BB61B968386A00F0FD
:10102000FBF93B6ABA69DA603B6A5B6A002B0FD056
:101030003B6A2433184602F007F80346002B07D01A
:101040003C4B4FF080521A60BFF34F8FBFF36F8F4E
:1010500003F0A8FE012369E07B68002B03D103F0B5
:10106000A1FE002362E07B6A002B06D107F110038A
:10107000184602F06FF901237B6203F093FE01F042
:101080007BFC03F074FE3B6A93F844305BB2B3F12F
:10109000FF3F03D13B6A002283F844203B6A93F868
:1010A00045305BB2B3F1FF3F03D13B6A002283F8C6
:1010B000452003F077FE3A1D07F11003114618464C
:1010C00002F05EF90346002B23D1386A00F01CFAC7
:1010D0000346002B17D03B6A24337A681146184622
:1010E00001F02CFF386A00F0BDF901F053FC034613
:1010F000002B87D10F4B4FF080521A60BFF34F8FF8
:10110000BFF36F8F7EE7386A00F0ACF901F042FC64
:1011100078E7386A00F0A6F901F03CFC386A00F084
:10112000F3F90346002B3FF46DAF00231846283730
:10113000BD4680BD04ED00E080B58EB000AFF86024
:10114000B9607A60FB683B63EFF311824FF05003A4
:1011500083F31188BFF36F8FBFF34F8FFA61BB61C9
:10116000FB69FB623B6B9B6BBB62BB6A002B37D09E
:101170003B6B93F8443087F82730B968386B00F040
:101180004BF9BB6A5A1E3B6B9A6397F92730B3F150
:10119000FF3F12D13B6B1B69002B1ED03B6B103302
:1011A000184601F051FF0346002B16D07B68002B38
:1011B00013D07B6801221A600FE001F005FD386250
:1011C00097F927303A6A9A4207D997F827300133BE
:1011D000DBB25AB23B6B83F8442001237B6301E00E
:1011E00000237B63FB6A7B617B6983F3118800BF0B
:1011F0007B6B18463837BD4680BD80B58AB000AFDE
:10120000786039607B683B62EFF311824FF05003E6
:1012100083F31188BFF36F8FBFF34F8F7A613B6108
:101220007B69FB613B6A9B6B002B0CD03B6ADB68E4
:10123000BB613968386A00F0EFF83B6ABA69DA6076
:1012400001237B6201E000237B62FB69FB60FB689A
:1012500083F3118800BF7B6A18462837BD4680BDDE
:1012600080B584B000AF786003F081FD7B689B6B34
:10127000FB6003F097FDFB6818461037BD4680BD44
:1012800080B584B000AF78607B68FB6003F06FFDD1
:10129000FB68DA6BFB689B6BD31ABB6003F082FDC3
:1012A000BB6818461037BD4680BD80B485B000AF1E
:1012B00078607B68FB60FB689B6BBB60BB68184613
:1012C0001437BD465DF8047B704780B584B000AF2D
:1012D00078607B68FB60F86803F0B0FE00BF1037F1
:1012E000BD4680BD80B483B000AF78607B681B6C66
:1012F00018460C37BD465DF8047B704780B483B058
:1013000000AF78607B68DB6B18460C37BD465DF834
:10131000047B704780B485B000AF78607B685B6AFF
:10132000002B06D07B681B6B1B68C3F10503FB60B9
:1013300001E00023FB60FB6818461437BD465DF8EA
:10134000047B704780B586B000AFF860B9607A6002
:1013500000237B61FB689B6B3B61FB681B6C002B74
:101360000DD1FB681B68002B4DD1FB689B681846AC
:1013700002F0F4F97861FB6800229A6043E07B6830
:10138000002B19D1FB685868FB681B6C1A46B968BA
:10139000FEF7D4FEFB685A68FB681B6C1A44FB68B6
:1013A0005A60FB685A68FB689B689A422BD3FB68BB
:1013B0001A68FB685A6026E0FB68D868FB681B6CFB
:1013C0001A46B968FEF7BAFEFB68DA68FB681B6C60
:1013D0005B421A44FB68DA60FB68DA68FB681B68EA
:1013E0009A4207D2FB689A68FB681B6C5B421A44FE
:1013F000FB68DA607B68022B05D13B69002B02D0C9
:101400003B69013B3B613B695A1CFB689A637B6902
:1014100018461837BD4680BD80B582B000AF7860F1
:1014200039607B681B6C002B18D07B68DA687B689E
:101430001B6C1A447B68DA607B68DA687B689B689F
:101440009A4203D37B681A687B68DA607B68D96844
:101450007B681B6C1A463868FEF770FE00BF0837C1
:10146000BD4680BD80B584B000AF786003F07FFCDE
:101470007B6893F84530FB7311E07B685B6A002B57
:1014800012D07B682433184601F0DEFD0346002BA2
:1014900001D001F0BFFFFB7B013BDBB2FB7397F98F
:1014A0000F30002BE9DC00E000BF7B68FF2283F8EF
:1014B000452003F077FC03F05AFC7B6893F8443036
:1014C000BB7311E07B681B69002B12D07B68103363
:1014D000184601F0B9FD0346002B01D001F09AFF38
:1014E000BB7B013BDBB2BB7397F90E30002BE9DC11
:1014F00000E000BF7B68FF2283F8442003F052FC29
:1015000000BF1037BD4680BD80B584B000AF7860A5
:1015100003F02DFC7B689B6B002B02D10123FB6049
:1015200001E00023FB6003F03DFCFB681846103728
:10153000BD4680BD80B485B000AF78607B68BB607D
:10154000BB689B6B002B02D10123FB6001E00023F1
:10155000FB60FB6818461437BD465DF8047B704796
:1015600080B584B000AF786003F001FC7B689A6BB3
:101570007B68DB6B9A4202D10123FB6001E0002310
:10158000FB6003F00FFCFB6818461037BD4680BDBA
:1015900080B485B000AF78607B68BB60BB689A6B35
:1015A000BB68DB6B9A4202D10123FB6001E00023A0
:1015B000FB60FB6818461437BD465DF8047B704736
:1015C00080B586B000AFF860B9607A60FB687B6177
:1015D00003F0CDFB7B6993F844305BB2B3F1FF3F7E
:1015E00003D17B69002283F844207B6993F845305E
:1015F0005BB2B3F1FF3F03D17B69002283F8452042
:1016000003F0D0FB7B699B6B002B06D17B692433F5
:101610007A68B968184601F0DFFC7869FFF722FFA5
:1016200000BF1837BD4680BD80B58AB004AFF860F2
:10163000B9607A603B607B68012B02D10123FB74A7
:1016400007E07B68022B02D10423FB7401E0002336
:10165000FB74BB68002B01D10123BB60FB6813F155
:10166000260F09D8FB680133FB60FB68243318465A
:1016700003F02CFC786101E000237B617B69002B87
:101680000DD07B6903F124013B6A02933B6801930F
:10169000FB7C0093BB68FA68786900F08AFC7B6980
:1016A00018461837BD4680BD80B584B000AF78605D
:1016B0007B68FB60FB681B7F03F00203002B03D1F8
:1016C000F86803F0BBFC04E024220021F868FEF770
:1016D00054FD00BF1037BD4680BD90B58BB004AF40
:1016E00078607B683B6100237B610023FB60002303
:1016F000BB6003F03CFB3B691B69002B17D13B69C6
:101700005B69002B13D13B6999693B6998683B6918
:10171000DC683B691B7FBA680292FA680192009309
:1017200023460246386900F044FC01237B6103F044
:1017300039FB7B6918461C37BD4690BD90B58FB00C
:1017400004AF78607B683B6200237B620023FB610F
:101750000023BB61EFF311824FF0500383F3118834
:10176000BFF36F8FBFF34F8F3A61FB603B697B61C3
:101770003B6A1B69002B17D13B6A5B69002B13D1B5
:101780003B6A99693B6A98683B6ADC683B6A1B7FE5
:10179000BA690292FA690192009323460246386AB6
:1017A00000F007FC01237B627B69BB60BB6883F3AD
:1017B000118800BF7B6A18462C37BD4690BD80B4A7
:1017C00085B000AF786039607B68BB603B68002BF8
:1017D00001D101233B60BB689B683A689A4205D2FD
:1017E000BB683A68DA600123FB6001E00023FB601C
:1017F000FB6818461437BD465DF8047B704780B41B
:1018000087B000AF78607B683B613B691B68FB6019
:101810003B699A683B691B6813447B613B695B6861
:101820007A69D31A7B613B691B68FA689A42ECD1EA
:101830007B69013B7B613B699B687A699A4204D36F
:101840003B699B687A69D31A7B617B6918461C37B0
:10185000BD465DF8047B704780B584B000AF78600A
:101860007B68FB60F86800F084FBB860BB681846D2
:101870001037BD4680BD80B58EB002AFF860B9604C
:101880007A603B60FB687B620023FB627B68BB6223
:1018900000233B627B6A9B68013B3B627B6A1B7F48
:1018A00003F00103002B09D0BB6A0433BB62BA6AA0
:1018B0003B6A9A4208D900233B6005E0BA6A3B6A5A
:1018C0009A4201D93B6ABB623B68002B35D007F1D5
:1018D0001403184601F026FD03F049FA786AFFF771
:1018E0008EFFF862FA6ABB6A9A420BD27B6A1B6A65
:1018F0001946002002F076FC01F04AFE02467B6A9F
:101900005A6102E003F04EFA17E003F04BFA7B6AEB
:10191000186A3B68009300230022002102F0E2F8DD
:101920007B6A00225A613A4607F1140311461846B1
:1019300001F026FD0346002BCED0FB6A002B03D11D
:10194000786AFFF75CFFF862BB6A0093FB6A7A680B
:10195000B968786A00F07EF8F861FB69002B1CD04A
:10196000786A00F006FB02467B6ADB689A4214D371
:1019700001F002F87B6A1B69002B0CD07B6A1869A6
:101980007B6A196A002300930023002202F03CF9CD
:101990007B6A00221A6100F0FDFFFB6918463037B0
:1019A000BD4680BD80B58EB002AFF860B9607A6088
:1019B0003B60FB68BB627B68FB62BB6A1B7F03F01A
:1019C0000103002B02D0FB6A0433FB62B86AFFF705
:1019D00016FF7862FB6A00937B6A7A68B968B86A16
:1019E00000F038F838623B6A002B2ED0B86A00F05D
:1019F000C0FA0246BB6ADB689A4226D3EFF3118233
:101A00004FF0500383F31188BFF36F8FBFF34F8FF5
:101A1000BA617B61BB69FB61BB6A1B69002B0ED09D
:101A2000BB6A1869BB6A196A3B680193002300937B
:101A30000023002202F0D2F9BB6A00221A61FB697E
:101A40003B613B6983F3118800BF3B6A184630371E
:101A5000BD4680BD80B586B000AFF860B9607A60E1
:101A60003B60FB685B687B61FB681B7F03F00103E5
:101A7000002B11D07B683B613A683B6A9A4208D3DD
:101A800007F110017B690422F86800F0FCF9786125
:101A900008E000237B6005E07A683B68934228BF3A
:101AA00013467B607B68002B08D07B697A68B96835
:101AB000F86800F0E8F90246FB685A607B6818464F
:101AC0001837BD4680BD80B58AB002AFF860B960F6
:101AD0007A603B60FB683B610023FB613B691B7FD5
:101AE00003F00103002B02D004237B610BE03B6970
:101AF0001B7F03F00403002B03D03B69DB687B6191
:101B000001E000237B613B68002B2BD003F02FF911
:101B1000386900F02EFAB861BA697B699A420AD82E
:101B20003B691B6A1946002002F05CFB01F030FDA6
:101B300002463B691A6103F035F9BA697B699A423A
:101B400014D83B69186A3B680093002300220021E7
:101B500001F0C8FF3B6900221A61386900F009FAF8
:101B6000B86103E0386900F004FAB861BA697B69CA
:101B70009A421ED9BB697A68B968386900F09AF848
:101B8000F861FB69002B14D000F0F6FEFB685B697E
:101B9000002B0CD0FB685869FB68196A002300937E
:101BA0000023002202F030F8FB6800225A6100F0A6
:101BB000F1FEFB6918462037BD4680BD80B586B072
:101BC00000AF78607B683B613B691B7F03F00103DA
:101BD000002B14D0386900F0CCF9F860FB68042BB6
:101BE0000AD93B691B6807F108010422386900F033
:101BF00085F9BB687B6104E000237B6101E0002381
:101C00007B617B6918461837BD4680BD80B58EB0B4
:101C100002AFF860B9607A603B60FB687B620023CA
:101C2000FB627B6A1B7F03F00103002B02D00423BD
:101C3000BB6201E00023BB62786A00F09AF9386267
:101C40003A6ABB6A9A4230D93B6A7A68B968786A5C
:101C500000F030F8F862FB6A002B26D0EFF3118217
:101C60004FF0500383F31188BFF36F8FBFF34F8F93
:101C7000BA617B61BB69FB617B6A5B69002B0ED03B
:101C80007B6A58697B6A196A3B6801930023009359
:101C90000023002202F0A2F87B6A00225A61FB694D
:101CA0003B613B6983F3118800BFFB6A18463037FC
:101CB000BD4680BD80B588B000AFF860B9607A607D
:101CC0003B60FB681B68BB61FB681B7F03F0010383
:101CD000002B13D007F11001BB690422F86800F053
:101CE0000DF9B8613B69FB613B68043B3B60FA69F5
:101CF0007B689A4204D90023FB6101E07B68FB61A9
:101D00003A68FB69934228BF13467B617B69002BCD
:101D100008D0BB697A69B968F86800F0EFF8024644
:101D2000FB681A607B6918462037BD4680BD80B4C9
:101D300087B000AF78607B683B613B691B68FB60E4
:101D40003B695B68FA689A4202D101237B6101E03A
:101D500000237B617B6918461C37BD465DF8047B18
:101D6000704780B586B000AF78607B68FB60FB6829
:101D70001B7F03F00103002B02D004233B6101E031
:101D800000233B617868FFF73AFD02463B699342C6
:101D900002D301237B6101E000237B617B6918464C
:101DA0001837BD4680BD80B58AB002AF7860396013
:101DB0007B68BB61EFF311824FF0500383F311880E
:101DC000BFF36F8FBFF34F8F3A61FB603B697B615D
:101DD000BB691B69002B11D0BB691869BB69196A03
:101DE0003B680193002300930023002201F0F6FFDB
:101DF000BB6900221A610123FB6101E00023FB6142
:101E00007B69BB60BB6883F3118800BFFB69184620
:101E10002037BD4680BD80B58AB002AF786039609A
:101E20007B68BB61EFF311824FF0500383F311889D
:101E3000BFF36F8FBFF34F8F3A61FB603B697B61EC
:101E4000BB695B69002B11D0BB695869BB69196A12
:101E50003B680193002300930023002201F0BEFFA2
:101E6000BB6900225A610123FB6101E00023FB6191
:101E70007B69BB60BB6883F3118800BFFB691846B0
:101E80002037BD4680BD80B586B000AFF860B96030
:101E90007A603B60FB689A683B68D31A7A68934221
:101EA00028BF13467B61FB689A693B6813447A69D3
:101EB000B9681846FEF742F97A687B699A420AD9EE
:101EC000FB689869BA687B69D1187A687B69D31A0C
:101ED0001A46FEF733F93A687B6813443B60FB68A7
:101EE0009B683A689A4204D3FB689B683A68D31AA5
:101EF0003B603B6818461837BD4680BD80B586B04C
:101F000000AFF860B9607A603B60FB689A683B6834
:101F1000D31A7A68934228BF13467B61FB689A699B
:101F20003B6813447A691946B868FEF707F97A687E
:101F30007B699A420AD9BA687B69D018FB689969AB
:101F40007A687B69D31A1A46FEF7F8F83A687B6814
:101F500013443B60FB689B683A689A4204D3FB6871
:101F60009B683A68D31A3B603B6818461837BD46F1
:101F700080BD80B485B000AF78607B689A687B686C
:101F80005B681344FB607B681B68FA68D31AFB60CC
:101F90007B689B68FA689A4204D37B689B68FA68FE
:101FA000D31AFB60FB6818461437BD465DF8047B06
:101FB000704780B584B000AFF860B9607A603B606C
:101FC00024220021F868FEF7D8F8FB68BA689A6105
:101FD000FB687A689A60FB683A68DA60FB683A7E68
:101FE0001A77FB6800221A6200BF1037BD4680BD19
:101FF00080B485B000AF78607B68FB60FB681B6ACB
:1020000018461437BD465DF8047B704780B485B030
:1020100000AF786039607B68FB60FB683A681A62E1
:1020200000BF1437BD465DF8047B704780B58AB0A9
:1020300004AFF860B9607A603B607B689B0018462B
:1020400002F044FF38613B69002B13D0542002F0AA
:102050003DFF78617B69002B08D05422002178690C
:10206000FEF78BF87B693A691A6305E0386902F07C
:10207000E5FF01E000237B617B69002B0DD000238D
:1020800003937B6902937B6A01933B6A00933B68ED
:102090007A68B968F86800F028F87B69184618373C
:1020A000BD4680BD80B588B002AFF860B9607A6087
:1020B0003B607B6A01933B6A00933B687A68B9682E
:1020C000F868FFF7B3FF38613B69002B05D038692A
:1020D00000F07BF801237B6102E04FF0FF337B616E
:1020E0007B6918461837BD4680BD80B586B000AF05
:1020F000F860B9607A603B60BB6A186B7B689B00D4
:102100001A46A521FEF739F8BB6A1A6B7B6803F102
:102110008043013B9B0013443B613B6923F0070371
:102120003B61BB68002B1ED000237B6112E0BA68C4
:102130007B6913441978BA6A7B69134434330A46BD
:102140001A70BA687B6913441B78002B06D07B6930
:1021500001337B617B690F2BE9D900E000BFBB6ACB
:10216000002283F843203B6A042B01D904233B62FD
:10217000BB6A3A6ADA62BB6A3A6A5A64BB6A043377
:102180001846FEF759FABB6A18331846FEF754FA98
:10219000BB6ABA6A1A613B6AC3F10502BB6A9A61FB
:1021A000BB6ABA6A5A623A68F968386902F02EFD69
:1021B0000246BB6A1A607B6A002B02D07B6ABA6A4D
:1021C0001A6000BF1837BD4680BD80B584B000AF2F
:1021D000786002F0CCFD404B1B6801333E4A13602F
:1021E0003E4B1B68002B09D13C4A7B6813603A4B7D
:1021F0001B68012B10D101F031F90DE0384B1B6841
:10220000002B09D1354B1B68DA6A7B68DB6A9A427E
:1022100002D8324A7B681360324B1B680133314A63
:1022200013607B68DB6A01229A402F4B1B681343C3
:102230002D4A13607B68DA6A2C4913469B001344CD
:102240009B000B4404331B68FB607B68FA689A6050
:10225000FB689A687B68DA60FB689B687A6804327E
:102260005A607B681A1DFB689A607B68DA6A1346BD
:102270009B0013449B001D4A1A447B685A617B688B
:10228000DA6A1A4913469B0013449B000B441B68EF
:102290007A68D26A591C154813469B0013449B0068
:1022A0000344196002F07EFD0D4B1B68002B0ED01D
:1022B0000A4B1B68DA6A7B68DB6A9A4207D20C4BCE
:1022C0004FF080521A60BFF34F8FBFF36F8F00BF84
:1022D0001037BD4680BD00BFE00000200800002090
:1022E000EC000020FC000020E80000200C00002092
:1022F00004ED00E080B586B000AF786000237B611C
:1023000002F035FD7B68002B02D1394B1B6800E0E1
:102310007B683B613B6904331846FEF7F7F90346D7
:10232000002B15D13B69DA6A324913469B001344EE
:102330009B000B441B68002B0AD13B69DB6A01221E
:1023400002FA03F3DA432C4B1B6813402A4A13604A
:102350003B699B6A002B04D03B6918331846FEF793
:10236000D5F9264B1B680133244A1360204B1B68A8
:102370003A699A4201D1012300E00023FB60204B1F
:102380001B68002B10D0FB68002B0DD03B69043379
:1023900019461C48FEF75DF91B4B1B6801331A4AAE
:1023A000136001237B6106E0184B1B68013B174A51
:1023B000136001F0D1F802F0F5FC7B69012B02D02B
:1023C000386901F0B9F80E4B1B68002B0CD0084B94
:1023D0001B683A699A4207D10D4B4FF080521A6040
:1023E000BFF34F8FBFF36F8F00BF1837BD4680BD5F
:1023F000080000200C000020E8000020FC00002065
:10240000EC000020B4000020C8000020E000002004
:1024100004ED00E080B584B000AF78600023FB607D
:102420007B68002B08D000F0A7FA0021786801F043
:1024300035FF00F0AFFAF860FB68002B07D1064BC0
:102440004FF080521A60BFF34F8FBFF36F8F00BF02
:102450001037BD4680BD00BF04ED00E080B586B0FA
:1024600000AF786002F083FC7B68002B02D13C4B0C
:102470001B6800E07B683B613B6904331846FEF74C
:1024800045F90346002B15D13B69DA6A35491346F5
:102490009B0013449B000B441B68002B0AD13B6933
:1024A000DB6A012202FA03F3DA432F4B1B68134065
:1024B0002D4A13603B699B6A002B04D03B6918339B
:1024C0001846FEF723F93B69043319462748FEF7FF
:1024D000C0F800237B6110E03A697B6913445033F4
:1024E0001B78DBB2012B05D13A697B691344503369
:1024F00000221A707B6901337B617B69002BEBDD65
:1025000002F050FC1A4B1B68002B05D002F02FFC88
:1025100001F022F802F046FC114B1B683A699A421E
:102520001AD1134B1B68002B08D0124B4FF080526E
:102530001A60BFF34F8FBFF36F8F0DE00B4B1B681B
:10254000FB600D4B1B68FA689A4203D1044B0022D2
:102550001A6001E000F07CFC00BF1837BD4680BD6A
:10256000080000200C000020E8000020CC00002023
:10257000EC00002004ED00E0E000002080B487B013
:1025800000AF786000237B617B68FB60FB685B6960
:10259000144A93421ED1FB689B6A134A934219D096
:1025A000FB689B6A002B15D101237B6100233B61F3
:1025B0000DE0FA683B69134450331B78DBB2012B02
:1025C00002D100237B6105E03B6901333B613B693C
:1025D000002BEEDD7B6918461C37BD465DF8047B99
:1025E000704700BFCC000020A000002080B584B060
:1025F00000AF78607B68FB60354B1B68FA689A42D5
:1026000061D0FB68002B5ED002F0B1FBF868FFF7E9
:10261000B5FF0346002B54D0FB6804331846FEF781
:1026200075F8FB68DB6A01229A402A4B1B6813434A
:10263000284A1360FB68DA6A274913469B00134453
:102640009B000B4404331B68BB60FB68BA689A604C
:10265000BB689A68FB68DA60BB689B68FA680432FA
:102660005A60FB681A1DBB689A60FB68DA6A1346F9
:102670009B0013449B00184A1A44FB685A61FB688C
:10268000DA6A154913469B0013449B000B441B68F0
:10269000FA68D26A591C104813469B0013449B00E9
:1026A000034419600A4B1B68DA6AFB68DB6A9A42CA
:1026B00007D20A4B4FF080521A60BFF34F8FBFF31F
:1026C0006F8F02F06FFB00BF1037BD4680BD00BFAB
:1026D00008000020E80000200C00002004ED00E0CD
:1026E00080B58AB000AF786000237B627B683B6274
:1026F000EFF311824FF0500383F31188BFF36F8F14
:10270000BFF34F8F7A613B617B69FB61386AFFF7EA
:1027100035FF0346002B5CD0334B1B68002B52D196
:102720003B6ADA6A314B1B68DB6A9A4204D901239F
:102730007B622F4B01221A603B6A04331846FDF777
:10274000E5FF3B6ADB6A01229A402A4B1B68134370
:10275000284A13603B6ADA6A274913469B001344F0
:102760009B000B4404331B68BB613B6ABA699A60E7
:10277000BB699A683B6ADA60BB699B683A6A043253
:102780005A603B6A1A1DBB699A603B6ADA6A134653
:102790009B0013449B00184A1A443B6A5A613B6AE7
:1027A000DA6A154913469B0013449B000B441B68CF
:1027B0003A6AD26A591C104813469B0013449B0086
:1027C0000344196005E03B6A183319460B48FDF7CE
:1027D00040FFFB69FB60FB6883F3118800BF7B6AE5
:1027E00018462837BD4680BD08010020080000209B
:1027F000F4000020E80000200C000020A0000020D1
:1028000080B58AB002AF0123FB613B4600221A600B
:102810005A609A60DA6000233B6100237B6111E01B
:102820001F4A7B69134419783A467B6913440A4668
:102830001A703A467B6913441B78002B06D07B69DB
:1028400001337B617B690E2BEAD900E000BF3A4679
:102850007B69134400221A700023BB6115E0114B01
:102860003B61BB699B00104A134439460193002326
:102870000093002380223869FFF714FCF861FB699C
:10288000012B06D1BB690133BB61BB69002BE6DDBF
:1028900000E000BFFB6918462037BD4680BD00BF81
:1028A000285400082D3400080401002080B582B0AF
:1028B00000AFFFF7A5FF78607B68012B02D101F024
:1028C000BFFD78607B68012B15D14FF0500383F377
:1028D0001188BFF36F8FBFF34F8F3B6000BF094B71
:1028E0004FF0FF321A60084B01221A60074B00229A
:1028F0001A6002F0FEF9064B1B6800BF0837BD46A0
:1029000080BD00BF00010020EC000020E40000209A
:102910002454000880B582B000AF01F063FE034686
:102920001846FFF7E7FC00237B6009E0104A7B684C
:1029300052F823301846FFF7DDFC7B6801337B60DB
:102940007B68002BF2DD00F0C9FD4FF0500383F3EC
:102950001188BFF36F8FBFF34F8F3B6000BF054BF4
:1029600000221A6002F0FCF900BF0837BD4680BDA6
:1029700004010020EC00002080B400AF044B1B6871
:102980000133034A136000BFBD465DF8047B704706
:102990000801002080B588B000AF0023FB61002350
:1029A000BB6102F0E4F900233B616D4B1B68013B06
:1029B0006B4A13606A4B1B68002B40F0CA80694B5E
:1029C0001B68002B00F0C5808EE0674BDB68DB687E
:1029D000FB61FB699B6AFB60FB69DB69FA69126A50
:1029E0009A60FB691B6AFA69D2695A60FB685A6887
:1029F000FB6918339A4203D1FB691A6AFB685A6073
:102A0000FB6900229A62FB681B685A1EFB681A6009
:102A1000FB695B69BB60FB699B68FA69D2689A6075
:102A2000FB69DB68FA6992685A60BB685A68FB699F
:102A300004339A4203D1FB69DA68BB685A60FB69C8
:102A400000225A61BB681B685A1EBB681A60FB698A
:102A5000DB6A01229A40454B1B681343434A1360CB
:102A6000FB69DA6A424913469B0013449B000B44FE
:102A700004331B687B60FB697A689A607B689A689C
:102A8000FB69DA607B689B68FA6904325A60FB690B
:102A90001A1D7B689A60FB69DA6A13469B0013442F
:102AA0009B00334A1A44FB695A61FB69DA6A304970
:102AB00013469B0013449B000B441B68FA69D26ABF
:102AC000591C2B4813469B0013449B000344196078
:102AD000FB69DA6A274B1B68DB6A9A4204D9264AEB
:102AE0003B69012142F823101F4B1B68002B7FF428
:102AF0006CAFFB69002B01D000F02EFD1F4B1B6853
:102B00007B617B69002B12D000F09AF80346002B02
:102B100004D0194A3B69012142F823107B69013B2B
:102B20007B617B69002BEFD1144B00221A60124AA3
:102B30003B6952F82330002B0BD00123BB610D4BB6
:102B40001B680F4B4FF080521A60BFF34F8FBFF3DB
:102B50006F8F02F027F9BB6918462037BD4680BD4C
:102B600008010020E0000020A0000020E800002074
:102B70000C00002008000020F4000020F0000020DD
:102B800004ED00E080B483B000AF054B1B687B60B0
:102B90007B6818460C37BD465DF8047B704700BF64
:102BA000E400002080B483B000AF00237B60054BBD
:102BB0001B683B603B6818460C37BD465DF8047BDC
:102BC000704700BFE400002080B400AF034B1B68D7
:102BD0001846BD465DF8047B704700BFE00000204A
:102BE00080B485B000AF78607B68002B02D1064BC3
:102BF0001B6800E07B68FB60FB68343318461437C1
:102C0000BD465DF8047B70470800002080B584B0A5
:102C100000AF7860FFF7B0FE02F0A9F8074B1A6822
:102C20007B681344054A136002F0BCF8FFF7B2FE5C
:102C3000F860FB6818461037BD4680BDF0000020E4
:102C400080B588B000AF0023FB61764B1B68002B7A
:102C500040F0DE80744B1B680133BB61724ABB6974
:102C60001360BB69002B10D1704B1B687B61704BEC
:102C70001B686E4A13606E4A7B6913606D4B1B685C
:102C800001336C4A136000F067FC6B4B1B68BA6938
:102C90009A42C0F0A880654B1B681B68002B04D1CA
:102CA000654B4FF0FF321A609DE0604B1B68DB689C
:102CB000DB683B613B695B68FB60BA69FB689A4211
:102CC00003D25D4AFB6813608DE03B695B69BB60C2
:102CD0003B699B683A69D2689A603B69DB683A69EC
:102CE00092685A60BB685A683B6904339A4203D1C0
:102CF0003B69DA68BB685A603B6900225A61BB686D
:102D00001B685A1EBB681A603B699B6A002B1ED069
:102D10003B699B6A7B603B69DB693A69126A9A602E
:102D20003B691B6A3A69D2695A607B685A683B6999
:102D300018339A4203D13B691A6A7B685A603B692F
:102D400000229A627B681B685A1E7B681A603B6986
:102D5000DB6A01229A40394B1B681343374A1360E0
:102D60003B69DA6A364913469B0013449B000B44C7
:102D700004331B683B603B693A689A603B689A6819
:102D80003B69DA603B689B683A6904325A603B6988
:102D90001A1D3B689A603B69DA6A13469B0013442C
:102DA0009B00274A1A443B695A613B69DA6A244905
:102DB00013469B0013449B000B441B683A69D26A7C
:102DC000591C1F4813469B0013449B000344196081
:102DD0003B69DA6A1B4B1B68DB6A9A427FF65BAF82
:102DE0000123FB6157E7174B1B68DA6A1449134646
:102DF0009B0013449B000B441B68012B01D901234A
:102E0000FB61114B1B68002B07D00123FB6104E021
:102E10000E4B1B6801330D4A1360FB6918462037BF
:102E2000BD4680BD08010020E4000020980000207D
:102E30009C000020F800002000010020E800002095
:102E40000C00002008000020F4000020F00000200A
:102E500080B588B000AF344B1B68002B03D0334BD8
:102E600001221A605BE0314B00221A60304B1B6874
:102E70001B6BFB614FF0A533BB612D4B1B681A68C0
:102E80002B4B1B681B6B9A4216D9FB691B68BA69EE
:102E90009A4211D1FB6904331B68BA699A420BD17B
:102EA000FB6908331B68BA699A4205D1FB690C3388
:102EB0001B68BA699A4209D01D4B1B6834337B6189
:102EC0001B4B1B6879691846FDF7C9F8194B1B683D
:102ED000BB60BB68B3FA83F3FB71FB79C3F11F03DB
:102EE0003B613A6913469B0013449B00124A13440A
:102EF000FB60FB685B685A68FB685A60FB685A684D
:102F0000FB6808339A4203D1FB68DA68FB685A60B1
:102F1000FB685B68DB68064A1360054B1B6800BFF3
:102F20002037BD4680BD00BF08010020F40000200E
:102F300008000020E80000200C00002080B582B0CE
:102F400000AF78603960074B1B6818331946786802
:102F5000FDF7A3FB0121386801F0A0F900BF083795
:102F6000BD4680BD0800002080B586B000AFF86087
:102F7000B9607A60174B1B68BA6842F000429A61E8
:102F8000FB685B687B61134B1B687A69DA61114BE4
:102F90001B687A6992681A620E4B1A687B699B6893
:102FA00018325A600B4B1B6803F118027B699A6058
:102FB000084B1B68FA689A62FB681B685A1CFB681E
:102FC0001A600121786801F069F900BF1837BD4621
:102FD00080BD00BF0800002080B586B000AFF8605B
:102FE000B9607A60FB685B687B61164B1B687A6925
:102FF000DA61144B1B687A6992681A62114B1A687D
:103000007B699B6818325A600E4B1B6803F11802EB
:103010007B699A600B4B1B68FA689A62FB681B68B5
:103020005A1CFB681A607B68002B02D04FF0FF33FC
:10303000BB607968B86801F031F900BF1837BD4648
:1030400080BD00BF0800002080B489B000AF786068
:103050007B68DB68DB68BB61BB699B6A7B61BB69C2
:10306000DB69BA69126A9A60BB691B6ABA69D2697C
:103070005A607B695A68BB6918339A4203D1BB69AD
:103080001A6A7B695A60BB6900229A627B691B6875
:103090005A1E7B691A604B4B1B68002B60D1BB69C1
:1030A0005B69FB60BB699B68BA69D2689A60BB695F
:1030B000DB68BA6992685A60FB685A68BB69043376
:1030C0009A4203D1BB69DA68FB685A60BB69002287
:1030D0005A61FB681B685A1EFB681A60BB69DB6A91
:1030E00001229A40384B1B681343374A1360BB696F
:1030F000DA6A364913469B0013449B000B440433A1
:103100001B68BB60BB69BA689A60BB689A68BB6998
:10311000DA60BB689B68BA6904325A60BB691A1DE1
:10312000BB689A60BB69DA6A13469B0013449B0034
:10313000264A1A44BB695A61BB69DA6A23491346B5
:103140009B0013449B000B441B68BA69D26A591C4C
:103150001E4813469B0013449B00034419601BE068
:103160001B4B5B683B61BB693A69DA613B699A68F2
:10317000BB691A623B699B68BA6918325A60BB69BD
:1031800003F118023B699A60BB69114A9A62104BBD
:103190001B6801330E4A1360BB69DA6A0D4B1B686A
:1031A000DB6A9A4205D90123FB610B4B01221A60AD
:1031B00001E00023FB61FB6918462437BD465DF83A
:1031C000047B704708010020E80000200C0000206C
:1031D000A000002008000020F400002080B487B088
:1031E00000AF786039603B6843F000427B681A604A
:1031F0007B68DB687B617B681B693B617B685B6824
:103200007A6892689A607B689B687A6852685A60AC
:103210003B695B687A689A4203D17B689A683B692C
:103220005A607B6800221A613B691B685A1E3B6921
:103230001A607B695B69FB607B699B687A69D2680D
:103240009A607B69DB687A6992685A60FB685A68A1
:103250007B6904339A4203D17B69DA68FB685A6060
:103260007B6900225A61FB681B685A1EFB681A6062
:103270007B69DB6A01229A40264B1B681343254A6F
:1032800013607B69DA6A244913469B0013449B0050
:103290000B4404331B68BB607B69BA689A60BB68E7
:1032A0009A687B69DA60BB689B687A6904325A6005
:1032B0007B691A1DBB689A607B69DA6A13469B00BA
:1032C00013449B00144A1A447B695A617B69DA6A89
:1032D000114913469B0013449B000B441B687A69F9
:1032E000D26A591C0C4813469B0013449B000344AC
:1032F00019607B69DA6A094B1B68DB6A9A4202D95A
:10330000074B01221A6000BF1C37BD465DF8047BE5
:10331000704700BFE80000200C00002008000020DB
:10332000F400002080B582B000AF786001F01FFD8E
:10333000064B1A687B681A60054B1A687B685A60EE
:1033400001F030FD00BF0837BD4680BDF800002009
:10335000E400002080B483B000AF7860064B1A68A8
:103360007B681A60054B1A687B685A6000BF0C378F
:10337000BD465DF8047B7047F8000020E4000020A3
:1033800080B586B000AF7860396001F0F0FC1F4B6B
:103390001B683B617B685B683A69D31AFB603B68DA
:1033A0001B68B3F1FF3F02D100237B6126E07B68FD
:1033B0001A68174B1B689A420AD07B685B683A69A7
:1033C0009A4205D301237B613B6800221A6015E015
:1033D0003B681B68FA689A420BD23B681A68FB6824
:1033E000D21A3B681A607868FFF7B4FF00237B614C
:1033F00004E03B6800221A6001237B6101F0D2FCEB
:103400007B6918461837BD4680BD00BFE400002028
:10341000F800002080B400AF034B01221A6000BF07
:10342000BD465DF8047B7047F400002080B582B093
:1034300000AF786000F052F8064B1B68012BF9D9F9
:10344000054B4FF080521A60BFF34F8FBFF36F8F61
:10345000F0E700BF0C00002004ED00E080B582B072
:1034600000AF00237B600CE07A6813469B00134496
:103470009B00124A13441846FDF7BEF87B680133DF
:103480007B607B68042BEFD90D48FDF7B5F80D483C
:10349000FDF7B2F80C48FDF7AFF80C48FDF7ACF8B3
:1034A0000B48FDF7A9F80B4B054A1A600A4B054A71
:1034B0001A6000BF0837BD4680BD00BF0C00002069
:1034C0007000002084000020A0000020B400002034
:1034D000CC000020980000209C00002080B582B025
:1034E00000AF19E001F043FC104BDB68DB687B6048
:1034F0007B6804331846FDF709F90D4B1B68013B47
:103500000B4A13600B4B1B68013B0A4A136001F026
:1035100049FC786800F010F8064B1B68002BE1D1DD
:1035200000BF00BF0837BD4680BD00BFB40000200B
:10353000E0000020C800002080B582B000AF7860B5
:103540007B681B6B184601F079FD786801F076FD09
:1035500000BF0837BD4680BD80B400AF0A4B1B6872
:103560001B68002B04D1094B4FF0FF321A6005E0B5
:10357000054B1B68DB681B68044A136000BFBD462F
:103580005DF8047B704700BF980000200001002018
:1035900080B483B000AF054B1B687B607B68184626
:1035A0000C37BD465DF8047B704700BF0800002063
:1035B00080B485B000AF78600023FB607B68002B8F
:1035C00005DB7B68002B02DC044B1B68FB60FB689F
:1035D00018461437BD465DF8047B7047080000208C
:1035E00080B483B000AF0B4B1B68002B02D10123CA
:1035F0007B6008E0084B1B68002B02D102237B6034
:1036000001E000237B607B6818460C37BD465DF8FF
:10361000047B7047EC0000200801002080B586B0D4
:1036200000AF78607B683B6100237B617B68002B87
:1036300000F089803B69DA6A454B1B68DB6A9A4275
:1036400078D23B699B69002B06DB414B1B68DB6A28
:10365000C3F105023B699A613B6959693B69DA6AC2
:1036600013469B0013449B003A4A1344994259D194
:103670003B6904331846FDF749F80346002B0AD18D
:103680003B69DB6A012202FA03F3DA43324B1B681F
:103690001340314A13602E4B1B68DA6A3B69DA62C9
:1036A0003B69DB6A01229A402B4B1B6813432A4A71
:1036B00013603B69DA6A274913469B0013449B0059
:1036C0000B4404331B68FB603B69FA689A60FB6833
:1036D0009A683B69DA60FB689B683A6904325A6011
:1036E0003B691A1DFB689A603B69DA6A13469B00C6
:1036F00013449B00174A1A443B695A613B69DA6AD2
:10370000144913469B0013449B000B441B683A6901
:10371000D26A591C0F4813469B0013449B00034474
:10372000196004E00A4B1B68DA6A3B69DA6201231C
:103730007B6108E03B695A6C054B1B68DB6A9A4267
:1037400001D201237B617B6918461837BD4680BDD5
:10375000080000200C000020E800002080B586B0A2
:1037600000AF78607B683B6100237B617B68002B46
:103770006ED03B699B6C5A1E3B699A643B69DA6A5E
:103780003B695B6C9A4263D03B699B6C002B5FD1B9
:103790003B6904331846FCF7B9FF0346002B0AD1F6
:1037A0003B69DB6A012202FA03F3DA432B4B1B6805
:1037B00013402A4A13603B695A6C3B69DA623B69E1
:1037C000DB6AC3F105023B699A613B69DB6A01224E
:1037D0009A40224B1B681343204A13603B69DA6A04
:1037E0001F4913469B0013449B000B4404331B6882
:1037F000FB603B69FA689A60FB689A683B69DA602B
:10380000FB689B683A6904325A603B691A1DFB6881
:103810009A603B69DA6A13469B0013449B00104A86
:103820001A443B695A613B69DA6A0D4913469B00A9
:1038300013449B000B441B683A69D26A591C084820
:1038400013469B0013449B000344196001237B61D2
:103850007B6918461837BD4680BD00BFE8000020D0
:103860000C00002080B588B000AF786039607B68BC
:10387000BB6101237B617B68002B00F08380BB6907
:103880005B6C3A689A4202D93B68FB6102E0BB6913
:103890005B6CFB61BB69DB6AFA699A4272D0BB69F7
:1038A0009B6C7A699A426DD1BB69DB6A3B61BB69EB
:1038B000FA69DA62BB699B69002B04DBFB69C3F11F
:1038C0000502BB699A61BB6959693A6913469B0055
:1038D00013449B002D4A1344994253D1BB690433CE
:1038E0001846FCF713FF0346002B0AD1BB69DB6ABD
:1038F000012202FA03F3DA43254B1B681340244AE2
:103900001360BB69DB6A01229A40214B1B68134399
:103910001F4A1360BB69DA6A1C4913469B001344B3
:103920009B000B4404331B68FB60BB69FA689A6018
:10393000FB689A68BB69DA60FB689B68BA69043205
:103940005A60BB691A1DFB689A60BB69DA6A134644
:103950009B0013449B000D4A1A44BB695A61BB6922
:10396000DA6A0A4913469B0013449B000B441B6808
:10397000BA69D26A591C054813469B0013449B0040
:103980000344196000BF2037BD4680BD0C000020F5
:10399000E800002080B483B000AF094B1B689B692E
:1039A0007B60074B1B68DA6A054B1B68C2F1050296
:1039B0009A617B6818460C37BD465DF8047B7047FA
:1039C0000800002080B483B000AF094B1B687B6007
:1039D0007B68002B04D07B689B6C5A1C7B689A64C4
:1039E0007B6818460C37BD465DF8047B704700BF06
:1039F0000800002080B588B000AFF860B9607A6038
:103A00000023FB61354B1A68FB6812339B0013449B
:103A10005B68002B32D17B68002B2FD0FEF7ACFF08
:103A200001F0A5F92D4B1A68FB6812339B00134473
:103A30005B68002B08D1294B1A68FB68134450338C
:103A400001221A700123FB6101F0ACF9FB69012B23
:103A500003D10121786800F021FCFEF79BFFB861DB
:103A6000FB69012B0AD1BB69002B07D11C4B4FF01E
:103A700080521A60BFF34F8FBFF36F8F01F077F959
:103A8000164B1A68FB6812339B0013445B687B611A
:103A90007B69002B14D0BB68002B08D00F4B1A6831
:103AA000FB6812339B00134400225A6008E00B4B62
:103AB00019687B695A1EFB6812339B000B445A60DD
:103AC000064B1A68FB681344503300221A7001F049
:103AD00069F97B6918462037BD4680BD0800002083
:103AE00004ED00E080B588B000AFF860B9607A609E
:103AF0003B600023BB61424B1A68FB6813445033A0
:103B00001B78DBB2022B41D0BB6A002B3ED0FEF704
:103B100033FF01F02CF93A4B1A68FB681344503319
:103B20001B78DBB2022B17D0354B1A68FB681233B7
:103B30009B0013445968BB68DB431940FB68123390
:103B40009B00134459602E4B1A68FB681344503392
:103B500001221A700123BB6101F024F9BB69012B1A
:103B600003D10121B86A00F099FBFEF713FF7861D9
:103B7000BB69012B0AD17B69002B07D1214B4FF088
:103B800080521A60BFF34F8FBFF36F8F01F0EFF8D1
:103B90003B68002B08D01A4B1A68FB6812339B0055
:103BA00013445A683B681A60154B1A68FB68134443
:103BB00050331B78DBB2022B02D00023FB6110E0F4
:103BC0000F4B1A68FB6812339B00134459687B68DB
:103BD000DB431940FB6812339B00134459600123F7
:103BE000FB61074B1A68FB681344503300221A70BC
:103BF00001F0D8F8FB6918462037BD4680BD00BFEC
:103C00000800002004ED00E080B58AB000AFF86045
:103C1000B9607A60FB7001237B62FB683B6201F054
:103C2000A6F83B6B002B07D03A6ABB6812339B00A7
:103C300013445A683B6B1A603A6ABB6813445033AA
:103C40001B78FB773A6ABB681344503302221A7020
:103C5000FB78042B3FD801A252F823F0D73C000890
:103C6000713C00088F3C0008AB3C0008BB3C0008DE
:103C70003A6ABB6812339B0013445A687B681A4344
:103C8000396ABB6812339B000B445A6024E03A6ADD
:103C9000BB6812339B0013445B685A1C396ABB68CB
:103CA00012339B000B445A6016E03A6ABB68123329
:103CB0009B0013447A685A600EE0FB7F022B07D00A
:103CC0003A6ABB6812339B0013447A685A6003E077
:103CD00000237B6200E000BFFB7F012B6ED13B6ABB
:103CE0005B69BB613B6A9B683A6AD2689A603B6ACF
:103CF000DB683A6A92685A60BB695A683B6A043367
:103D00009A4203D13B6ADA68BB695A603B6A002277
:103D10005A61BB691B685A1EBB691A603B6ADB6A41
:103D200001229A40294B1B681343284A13603B6ABF
:103D3000DA6A274913469B0013449B000B44043363
:103D40001B687B613B6A7A699A607B699A683B6A07
:103D5000DA607B699B683A6A04325A603B6A1A1DD2
:103D60007B699A603B6ADA6A13469B0013449B00A6
:103D7000174A1A443B6A5A613B6ADA6A1449134685
:103D80009B0013449B000B441B683A6AD26A591C7F
:103D90000F4813469B0013449B00034419600D4BCE
:103DA0001B68DA6A3B6ADB6A9A4207D20A4B4FF019
:103DB00080521A60BFF34F8FBFF36F8F00F0F2FF96
:103DC0007B6A18462837BD4680BD00BFE80000204A
:103DD0000C0000200800002004ED00E080B48FB04B
:103DE00000AFF860B9607A60FB7001237B63FB6809
:103DF0003B63EFF311824FF0500383F31188BFF35D
:103E00006F8FBFF34F8FBA617B61BB69FB623B6C05
:103E1000002B07D03A6BBB6812339B0013445A68DF
:103E20003B6C1A603A6BBB68134450331B7887F8BD
:103E30002B303A6BBB681344503302221A70FB7864
:103E4000042B41D801A252F823F000BFC93E00085C
:103E5000613E00087F3E00089B3E0008AB3E000824
:103E60003A6BBB6812339B0013445A687B681A4351
:103E7000396BBB6812339B000B445A6025E03A6BE8
:103E8000BB6812339B0013445B685A1C396BBB68D8
:103E900012339B000B445A6017E03A6BBB68123335
:103EA0009B0013447A685A600FE097F82B30022B7E
:103EB00007D03A6BBB6812339B0013447A685A6090
:103EC00003E000237B6300E000BF97F82B30012B59
:103ED00040F091804E4B1B68002B60D13B6B5B69BF
:103EE0003B623B6B9B683A6BD2689A603B6BDB68CA
:103EF0003A6B92685A603B6A5A683B6B04339A4249
:103F000003D13B6BDA683B6A5A603B6B00225A6113
:103F10003B6A1B685A1E3B6A1A603B6BDB6A0122D4
:103F20009A403C4B1B6813433A4A13603B6BDA6A76
:103F3000394913469B0013449B000B4404331B6810
:103F4000FB613B6BFA699A60FB699A683B6BDA60CC
:103F5000FB699B683A6B04325A603B6B1A1DFB6924
:103F60009A603B6BDA6A13469B0013449B002A4A13
:103F70001A443B6B5A613B6BDA6A274913469B0034
:103F800013449B000B441B683A6BD26A591C2248AD
:103F900013469B0013449B00034419601BE01F4B16
:103FA0005B687B623B6B7A6ADA617B6A9A683B6B1F
:103FB0001A627B6A9B683A6B18325A603B6B03F15A
:103FC00018027B6A9A603B6B144A9A62134B1B6817
:103FD0000133124A13603B6BDA6A114B1B68DB6AD0
:103FE0009A4208D97B6C002B02D07B6C01221A60AC
:103FF0000C4B01221A60FB6A3B613B6983F3118819
:1040000000BF7B6B18463C37BD465DF8047B7047AC
:1040100008010020E80000200C000020A000002083
:1040200008000020F400002080B48FB000AFF860DA
:10403000B9607A60FB687B63EFF311824FF0500345
:1040400083F31188BFF36F8FBFF34F8FFA61BB61AA
:10405000FB693B637A6BBB68134450331B7887F86A
:104060002F307A6BBB681344503302221A707A6B7C
:10407000BB6812339B0013445B685A1C796BBB68A6
:1040800012339B000B445A6097F82F30012B40F0FD
:1040900091804E4B1B68002B60D17B6B5B697B6210
:1040A0007B6B9B687A6BD2689A607B6BDB687A6B00
:1040B00092685A607B6A5A687B6B04339A4203D1D8
:1040C0007B6BDA687B6A5A607B6B00225A617B6A81
:1040D0001B685A1E7B6A1A607B6BDB6A01229A405E
:1040E0003B4B1B6813433A4A13607B6BDA6A3949CE
:1040F00013469B0013449B000B4404331B683B6234
:104100007B6B3A6A9A603B6A9A687B6BDA603B6ABF
:104110009B687A6B04325A607B6B1A1D3B6A9A600B
:104120007B6BDA6A13469B0013449B00294A1A44AE
:104130007B6B5A617B6BDA6A264913469B001344FA
:104140009B000B441B687A6BD26A591C21481346AA
:104150009B0013449B00034419601BE01E4B5B68EB
:10416000BB627B6BBA6ADA61BB6A9A687B6B1A6264
:10417000BB6A9B687A6B18325A607B6B03F118023A
:10418000BB6A9A607B6B144A9A62134B1B680133BB
:10419000114A13607B6BDA6A104B1B68DB6A9A4228
:1041A00008D97B68002B02D07B6801221A600C4B77
:1041B00001221A603B6B7B617B6983F3118800BF2E
:1041C00000BF3C37BD465DF8047B70470801002006
:1041D000E80000200C000020A000002008000020C3
:1041E000F400002080B584B000AF786039607B684F
:1041F000002B02D1104B1B6800E07B68BB6000F015
:10420000B6FDBA683B68134450331B78DBB2022B0F
:1042100008D1BA683B681344503300221A70012356
:10422000FB6001E00023FB6000F0BCFDFB6818466A
:104230001037BD4680BD00BF0800002080B586B0A5
:1042400000AFF860B9607A60FB68002B02D1124BB6
:104250001B6800E0FB687B6100F089FD7A69BB6840
:1042600012339B0013445B683B617A69BB6812336D
:104270009B0013445A687B68DB431A407969BB682A
:1042800012339B000B445A6000F08CFD3B691846CA
:104290001837BD4680BD00BF0800002080B588B03B
:1042A00000AF78603960374B1B68FB61364B1B6889
:1042B000BB61364B1B687B61354B1B68043318466A
:1042C000FCF724FA0346002B0BD1314B1B68DB6A49
:1042D000012202FA03F3DA432E4B1B6813402D4AE6
:1042E00013607B68B3F1FF3F24D13B68002B21D0E2
:1042F000294B5B683B61264B1B683A699A60244BEB
:104300001B683A699268DA60214B1A683B699B68BE
:1043100004325A601E4B1B681A1D3B699A601C4B85
:104320001B681D4A5A611C4B1B6801331A4A1360F3
:1043300000BF22E0FA697B681344FB60144B1B68E2
:10434000FA685A60FA68FB699A4207D2104B1B68F8
:10435000043319467869FCF7A0F90EE00C4B1B6892
:1043600004331946B869FCF798F90C4B1B68FA68D6
:104370009A4202D2094AFB68136000BF2037BD464B
:1043800080BD00BFE4000020980000209C000020B9
:1043900008000020E8000020CC00002000010020E0
:1043A00080B483B000AF1A4B00221A60194B002270
:1043B0001A60194B00221A60184B00221A60184B21
:1043C00000221A60174B00221A60174B00221A6055
:1043D00000237B6007E0154A7B68002142F8231028
:1043E0007B6801337B607B68002BF4DD104B00227F
:1043F0001A60104B00221A600F4B00221A600F4BFC
:1044000000221A6000BF0C37BD465DF8047B704780
:1044100008000020C8000020E0000020E400002088
:10442000E8000020EC000020F0000020F400002054
:10443000F8000020FC0000200001002008010020FE
:1044400080B584B002AF00237B6000F065FB0A4BAF
:104450001B68002B0BD0094B01930423009300230E
:104460004FF4807206490748FDF71CFE78607B68B0
:1044700018460837BD4680BD3C01002040010020A1
:10448000305400089147000880B588B002AFF8604A
:10449000B9607A603B60282000F018FD78617B6984
:1044A000002B0DD07B69002283F824207B690193C7
:1044B0003B6A00933B687A68B968F86800F005F8D1
:1044C0007B6918461837BD4680BD80B584B000AF03
:1044D000F860B9607A603B6000F01EFBFB69FA6827
:1044E0001A60FB69BA689A61FB693A68DA61FB692C
:1044F000BA691A62FB6904331846FCF79DF87B68B9
:10450000002B08D0FB6993F8243043F00403DAB29F
:10451000FB6983F8242000BF1037BD4680BD80B5FD
:1045200088B000AFF860B9607A603B600023FB613F
:10453000164B1B68002B23D0FB68002B20D0BB68D8
:104540003B617B687B61FB68BB61BB68052B17DC4B
:10455000FFF746F80346022B09D10C4B186807F108
:1045600010010023BA6AFCF76CFAF86108E0074B07
:10457000186807F1100100230022FCF762FAF861C5
:10458000FB6918462037BD4680BD00BF3C010020B6
:1045900080B588B000AFF860B9607A603B600023F6
:1045A000FB610F4B1B68002B14D0FB68002B11D054
:1045B000BB683B617B687B61FB68BB61BB68052BAB
:1045C00008DD074B186807F1100100233A68FCF773
:1045D000E3FAF861FB6918462037BD4680BD00BF8D
:1045E0003C01002080B400AF034B1B681846BD4659
:1045F0005DF8047B704700BF4001002080B485B0A7
:1046000000AF78607B68FB60FB689B6918461437D5
:10461000BD465DF8047B704780B584B000AF78601C
:1046200039607B68FB6000F0A2FB3B68002B09D07F
:10463000FB6893F8243043F00403DAB2FB6883F894
:10464000242008E0FB6893F8243023F00403DAB256
:10465000FB6883F8242000F0A5FB00BF1037BD469F
:1046600080BD80B584B000AF78607B68BB6000F02F
:104670007EFBBB6893F8243003F00403002B02D1C7
:104680000023FB6001E00123FB6000F08BFBFB6873
:1046900018461037BD4680BD80B584B000AF786045
:1046A0007868FFF7DEFF0346FB60FB6818461037AB
:1046B000BD4680BD80B485B000AF78607B68FB608C
:1046C000FB685B68BB60BB6818461437BD465DF885
:1046D000047B704780B485B000AF78607B68FB6076
:1046E000FB681B6818461437BD465DF8047B7047AD
:1046F00080B584B000AFF860B9607A6008E0FB680C
:104700009B69BA681344BB60FB681B6AF8689847EA
:10471000FB689A69BB68D118BB687A68F86800F0D2
:10472000DBF80346002BEAD100BF00BF1037BD46BF
:1047300080BD80B584B000AF78603960134B1B68D2
:10474000DB68DB68FB60FB6804331846FBF7DEFFC1
:10475000FB6893F8243003F00403002B05D03A687B
:104760007968F868FFF7C4FF08E0FB6893F8243025
:1047700023F00103DAB2FB6883F82420FB681B6A8C
:10478000F868984700BF1037BD4680BD340100204F
:1047900080B584B000AF786007F10803184600F0D8
:1047A00057F8F860BB681946F86800F004F800F0A4
:1047B000D5F800BFF0E780B584B000AF786039600D
:1047C000FEF7DAF807F10803184600F065F8F8601C
:1047D000BB68002B30D13B68002B0AD17A68FB689C
:1047E0009A4206D8FEF7D6F8F9687868FFF7A1FF75
:1047F00024E03B68002B08D0124B1B681B68002B81
:1048000001D1012300E000233B600F4B18687A6858
:10481000FB68D31A3A681946FCF7D2FEFEF7BAF8DD
:104820000346002B0AD1094B4FF080521A60BFF3A8
:104830004F8FBFF36F8F01E0FEF7ACF800BF10376A
:10484000BD4680BD380100203C01002004ED00E0A1
:1048500080B485B000AF78600E4B1B681B68002BDE
:1048600001D1012200E000227B681A607B681B688E
:10487000002B05D1074B1B68DB681B68FB6001E060
:104880000023FB60FB6818461437BD465DF8047BC7
:10489000704700BF3401002080B584B000AF78605D
:1048A000FEF770F9F8600B4B1B68FA689A4205D264
:1048B00000F00CF97B6801221A6002E07B6800229C
:1048C0001A60044AFB681360FB6818461037BD463F
:1048D00080BD00BF4401002080B586B000AFF86005
:1048E000B9607A603B6000237B61FB68BA685A60FC
:1048F000FB68FA681A61BA687B689A4212D87A68CB
:104900003B68D21AFB689B699A4202D301237B6100
:104910001BE0104B1A68FB68043319461046FBF77E
:10492000BCFE12E07A683B689A4206D2BA683B68DD
:104930009A4202D301237B6107E0074B1A68FB68A8
:10494000043319461046FBF7A8FE7B691846183752
:10495000BD4680BD380100203401002080B586B0FE
:1049600000AF3B1D00221A605A609A609CE07B6891
:10497000002BC0F29980FB687B617B69002B00F003
:1049800093807B695B69002B04D07B6904331846F4
:10499000FBF7BCFE3B461846FFF77EFF38617B689D
:1049A000013B082B7DD801A252F823F0D149000821
:1049B000D1490008394A00084D4A0008794A0008E0
:1049C000D1490008D1490008394A00084D4A000879
:1049D0007B6993F8243043F00103DAB27B6983F8F2
:1049E0002420BA687B699B69D118BB683A697869E9
:1049F000FFF772FF0346002B55D07B6993F82430F4
:104A000003F00403002B09D0BA687B699B69134447
:104A10003A6919467869FFF76BFE08E07B6993F8FD
:104A2000243023F00103DAB27B6983F824207B6908
:104A30001B6A7869984736E07B6993F8243023F045
:104A40000103DAB27B6983F824202DE07B6993F8B7
:104A5000243043F00103DAB27B6983F82420BA687A
:104A60007B699A617B699A693B69D1183B693A69AC
:104A70007869FFF731FF17E07B6993F8243003F082
:104A80000203002B03D1786900F0D8FA0CE07B69AF
:104A900093F8243023F00103DAB27B6983F82420F1
:104AA00002E000BF00E000BF074B1B68391D002279
:104AB0001846FCF732F90346002B7FF458AF00BFCD
:104AC00000BF1837BD4680BD3C01002080B582B0D4
:104AD00000AF09E00E4B1B68DB681B683B604FF0C2
:104AE000FF313868FFF725FE094B1B681B68002B58
:104AF000F0D1074B1B687B60064B1B68044A1360B0
:104B0000044A7B68136000BF0837BD4680BD00BF04
:104B1000340100203801002080B500AF00F027F9F3
:104B20000D4B1B68002B13D10C48FBF765FD0C489F
:104B3000FBF762FD0B4B094A1A600B4B084A1A60DF
:104B400000220C210520FBF77FFE0346024A13607A
:104B500000F028F900BF80BD3C0100200C010020BE
:104B600020010020340100203801002080B584B0ED
:104B700000AF78607B68BB6000F0F9F8BB6893F821
:104B8000243003F00103002B02D10023FB6001E07D
:104B90000123FB6000F006F9FB6818461037BD469C
:104BA00080BD80B584B000AF78607B68FB6000F0AA
:104BB000DEF8FB68DB69BB6000F0F4F8BB68184600
:104BC0001037BD4680BD80B584B000AF78603960D5
:104BD0007B68FB6000F0CBF8FB683A68DA6100F0B4
:104BE000E1F800BF1037BD4680BD80B400AF054B73
:104BF00000221A60044B00221A6000BFBD465DF817
:104C0000047B70473C0100204001002080B485B047
:104C100000AFF860B9607A60FB68043BFB60FB683A
:104C20004FF080721A60FB68043BFB60BB6823F0A6
:104C30000102FB681A60FB68043BFB600C4AFB68DE
:104C40001A60FB68143BFB607A68FB681A60FB68BB
:104C5000043BFB60FB686FF002021A60FB68203BBC
:104C6000FB60FB6818461437BD465DF8047B70474F
:104C7000754C000880B483B000AF00233B604FF058
:104C8000500383F31188BFF36F8FBFF34F8F7B60A7
:104C900000BF00BF3B68002BFCD000BF00BF0C373B
:104CA000BD465DF8047B7047064B19680868B0E89C
:104CB000F04F80F30988BFF36F8F4FF0000080F34F
:104CC000118870470800002000BF0848006800688D
:104CD00080F308884FF0000080F3148862B661B654
:104CE000BFF34F8FBFF36F8F00DF00BF08ED00E011
:104CF00000BF80B582B000AF144B1B687B60144BC3
:104D00001B68134A43F47F031360114B1B68104A5E
:104D100043F07F4313600F4B00221A6000F0AEF89F
:104D20000D4B00221A6000F0C5F80C4B1B680B4AB3
:104D300043F040431360FFF7C8FFFEF789F8FFF721
:104D400099FF002318460837BD4680BD08ED00E0F6
:104D500020ED00E01CED00E00000002034EF00E05A
:104D600080B400AF00BFBD465DF8047B704780B4DF
:104D700083B000AF4FF0500383F31188BFF36F8F00
:104D8000BFF34F8F7B6000BF054B1B680133044AA4
:104D9000136000BF0C37BD465DF8047B704700BF51
:104DA0000000002080B483B000AF0A4B1B68013BB9
:104DB000084A1360074B1B68002B05D100237B605A
:104DC0007B6883F3118800BF00BF0C37BD465DF8D8
:104DD000047B704700000020EFF30980BFF36F8F62
:104DE000134B1A681EF0100F08BF20ED108A20E93F
:104DF000F04F106009B44FF0500080F31188BFF3FA
:104E00004F8FBFF36F8FFEF723F84FF0000080F352
:104E1000118809BC19680868B0E8F04F1EF0100F3F
:104E200008BFB0EC108A80F30988BFF36F8F70471A
:104E30000800002000BF80B582B000AF4FF05003E3
:104E400083F31188BFF36F8FBFF34F8F7B6000BF79
:104E5000FDF7F6FE0346002B03D0074B4FF08052C0
:104E60001A6000233B603B6883F3118800BF00BFDA
:104E70000837BD4680BD00BF04ED00E080B400AF40
:104E8000084B00221A60084B00221A60074B084AA0
:104E90001A60044B07221A6000BFBD465DF8047B10
:104EA000704700BF10E000E018E000E014E000E010
:104EB0001F480100DFF80C00016841F47001016037
:104EC0007047000088ED00E000BF00BF80B588B0EB
:104ED00000AF786000237B6100233B617B68002B7F
:104EE00022D00823DB437A689A421BD808227B68C9
:104EF00013447B607B6803F00703002B14D07B68AE
:104F000003F00703C3F10803FB60FB68DB437A6827
:104F10009A4204D87A68FB6813447B6004E000235B
:104F20007B6001E000237B60FDF726FD3E4B1B68A4
:104F3000002B01D100F01BF97B68002B67DB7B683D
:104F4000002B64D0394B1B687A689A425FD8384B83
:104F5000BB61374B1B68FB6104E0FB69BB61FB690C
:104F60001B68FB61FB695B687A689A4203D9FB693D
:104F70001B68002BF1D12C4B1B68FA699A4246D072
:104F8000BB691B68082213447B61FB691A68BB6913
:104F90001A60FB695A687B68D21A08235B009A4240
:104FA00013D9FA697B681344BB60FB695A687B6854
:104FB000D21ABB685A60FB697A685A60BB691A6882
:104FC000BB681A60BB69BA681A60184B1A68FB693B
:104FD0005B68D31A154A1360144B1A68154B1B688B
:104FE0009A4203D2114B1B68124A1360FB695B683B
:104FF0003B61FB695B6843F00042FB695A60FB69F7
:1050000000221A600C4B1B6801330B4A1360FDF73A
:10501000C1FC7B69002B01D1FBF712F87B691846B4
:105020002037BD4680BD00BF5029002054290020F4
:1050300048290020582900205C29002080B584B030
:1050400000AF78607B68FB607B68002B27D008236B
:105050005B42FA681344FB60FB68BB60BB685B683B
:10506000002B1CDABB681B68002B18D1BB685B687F
:1050700023F00042BB685A60FDF77EFCBB685A68AB
:10508000094B1B681344084A1360B86800F0CAF85B
:10509000064B1B680133054A1360FDF77BFC00BF1C
:1050A0001037BD4680BD00BF542900206029002074
:1050B00080B400AF034B1B681846BD465DF8047B07
:1050C000704700BF5429002080B400AF034B1B6819
:1050D0001846BD465DF8047B704700BF5829002084
:1050E00080B400AF044B1B68044A136000BFBD4688
:1050F0005DF8047B704700BF542900205829002028
:1051000080B400AF00BFBD465DF8047B704780B53A
:1051100084B000AF786039600023FB607B68002BAF
:1051200009D04FF0FF327B68B2FBF3F33A689A4242
:1051300001D9012300E00023002B13D17B683A68DA
:1051400002FB03F31846FFF7C1FEF860FB68002B73
:1051500008D07B683A6802FB03F31A460021F8681E
:10516000FBF70BF8FB6818461037BD4680BD80B4CE
:1051700085B000AF4FF42053BB60254BFB60FB684C
:1051800003F00703002B0CD0FB680733FB60FB68C0
:1051900023F00703FB60BA68FB68D31A1C4A134468
:1051A000BB60FB681B4A13601A4B00225A60FA6806
:1051B000BB6813447B6008227B689B1A7B607B681A
:1051C00023F007037B607B68134A1360124B1B6854
:1051D00000225A60104B1B6800221A60FB683B607B
:1051E0003B687A68D21A3B685A600B4B1A683B6876
:1051F0001A603B685B68094A13603B685B68084A51
:10520000136000BF1437BD465DF8047B704700BFD4
:10521000480100204829002050290020582900205A
:105220005429002080B485B000AF7860284BFB6023
:1052300002E0FB681B68FB60FB681B687A689A42A7
:10524000F7D8FB68BB60FB685B68BA6813447A6890
:105250009A4208D1FB685A687B685B681A44FB680D
:105260005A60FB687B607B68BB607B685B68BA6880
:105270001A44FB681B689A4218D1FB681A68154BE0
:105280001B689A420DD07B685A68FB681B685B6894
:105290001A447B685A60FB681B681A687B681A604E
:1052A00008E00C4B1A687B681A6003E0FB681A6818
:1052B0007B681A60FA687B689A4202D0FB687A6859
:1052C0001A6000BF1437BD465DF8047B704700BF0D
:1052D000482900205029002080B586B000AF7860B2
:1052E00000233B610023FB604FF0FF33BB60FDF701
:1052F00043FB224B1B687B617B69002B1BD015E0B5
:105300003B6901333B617B695B68FA689A4202D270
:105310007B695B68FB607B695B68BA689A4202D90B
:105320007B695B68BB607B691B687B61144B1B6896
:105330007A699A42E4D1FDF72DFB7B68FA685A60DE
:105340007B68BA689A607B683A69DA60FFF70FFD9C
:105350000C4B1A687B681A600B4B1A687B685A61A1
:105360000A4B1A687B689A61094B1A687B681A6154
:10537000FFF718FD00BF1837BD4680BD4829002043
:1053800050290020542900205C2900206029002099
:105390005829002080B400AF094B00221A60094B45
:1053A00000221A60084B00221A60084B00221A6083
:1053B000074B00221A6000BFBD465DF8047B7047B2
:1053C0005029002054290020582900205C29002061
:1053D000602900200A480B490B4A8842BEBF52F898
:1053E000043B40F8043BF8E708480949002288429A
:1053F000B8BF40F8042BFADBFAF742FEFEE70000E4
:1054000000000020040000203C540008040000209C
:1054100064290020FEE700004C454400436F756E90
:10542000746572000400000049444C45000000000F
:0C543000546D72205376630008000000E9
:04543C00AAAAAAAAC4
:04000005080053D5C7
:00000001FF
